{
  "_format": "hh-sol-artifact-1",
  "TcontractAddress": "0x06F47675d37A45ef2D4DeFEdACbF9e0091de36eE",
  "contractName": "THTESTNFT1155",
  "sourceName": "contracts/THTESTNFT1155.sol",
  "abi": [
    {
      "anonymous": false,
      "inputs": [
        {
          "indexed": true,
          "internalType": "address",
          "name": "account",
          "type": "address"
        },
        {
          "indexed": true,
          "internalType": "address",
          "name": "operator",
          "type": "address"
        },
        {
          "indexed": false,
          "internalType": "bool",
          "name": "approved",
          "type": "bool"
        }
      ],
      "name": "ApprovalForAll",
      "type": "event"
    },
    {
      "anonymous": false,
      "inputs": [
        {
          "indexed": true,
          "internalType": "address",
          "name": "previousOwner",
          "type": "address"
        },
        {
          "indexed": true,
          "internalType": "address",
          "name": "newOwner",
          "type": "address"
        }
      ],
      "name": "OwnershipTransferred",
      "type": "event"
    },
    {
      "anonymous": false,
      "inputs": [
        {
          "indexed": false,
          "internalType": "address",
          "name": "account",
          "type": "address"
        }
      ],
      "name": "Paused",
      "type": "event"
    },
    {
      "anonymous": false,
      "inputs": [
        {
          "indexed": true,
          "internalType": "address",
          "name": "operator",
          "type": "address"
        },
        {
          "indexed": true,
          "internalType": "address",
          "name": "from",
          "type": "address"
        },
        {
          "indexed": true,
          "internalType": "address",
          "name": "to",
          "type": "address"
        },
        {
          "indexed": false,
          "internalType": "uint256[]",
          "name": "ids",
          "type": "uint256[]"
        },
        {
          "indexed": false,
          "internalType": "uint256[]",
          "name": "values",
          "type": "uint256[]"
        }
      ],
      "name": "TransferBatch",
      "type": "event"
    },
    {
      "anonymous": false,
      "inputs": [
        {
          "indexed": true,
          "internalType": "address",
          "name": "operator",
          "type": "address"
        },
        {
          "indexed": true,
          "internalType": "address",
          "name": "from",
          "type": "address"
        },
        {
          "indexed": true,
          "internalType": "address",
          "name": "to",
          "type": "address"
        },
        {
          "indexed": false,
          "internalType": "uint256",
          "name": "id",
          "type": "uint256"
        },
        {
          "indexed": false,
          "internalType": "uint256",
          "name": "value",
          "type": "uint256"
        }
      ],
      "name": "TransferSingle",
      "type": "event"
    },
    {
      "anonymous": false,
      "inputs": [
        {
          "indexed": false,
          "internalType": "string",
          "name": "value",
          "type": "string"
        },
        {
          "indexed": true,
          "internalType": "uint256",
          "name": "id",
          "type": "uint256"
        }
      ],
      "name": "URI",
      "type": "event"
    },
    {
      "anonymous": false,
      "inputs": [
        {
          "indexed": false,
          "internalType": "address",
          "name": "account",
          "type": "address"
        }
      ],
      "name": "Unpaused",
      "type": "event"
    },
    {
      "anonymous": false,
      "inputs": [
        {
          "indexed": true,
          "internalType": "address",
          "name": "to",
          "type": "address"
        },
        {
          "indexed": false,
          "internalType": "uint256",
          "name": "_boxType",
          "type": "uint256"
        },
        {
          "indexed": false,
          "internalType": "uint256",
          "name": "_boxQuota",
          "type": "uint256"
        }
      ],
      "name": "claimedAirdropWhitelistEvent",
      "type": "event"
    },
    {
      "inputs": [
        {
          "internalType": "address",
          "name": "account",
          "type": "address"
        },
        {
          "internalType": "uint256",
          "name": "id",
          "type": "uint256"
        }
      ],
      "name": "balanceOf",
      "outputs": [
        {
          "internalType": "uint256",
          "name": "",
          "type": "uint256"
        }
      ],
      "stateMutability": "view",
      "type": "function"
    },
    {
      "inputs": [
        {
          "internalType": "address[]",
          "name": "accounts",
          "type": "address[]"
        },
        {
          "internalType": "uint256[]",
          "name": "ids",
          "type": "uint256[]"
        }
      ],
      "name": "balanceOfBatch",
      "outputs": [
        {
          "internalType": "uint256[]",
          "name": "",
          "type": "uint256[]"
        }
      ],
      "stateMutability": "view",
      "type": "function"
    },
    {
      "inputs": [],
      "name": "boxTypeIds",
      "outputs": [
        {
          "internalType": "uint256",
          "name": "_value",
          "type": "uint256"
        }
      ],
      "stateMutability": "view",
      "type": "function"
    },
    {
      "inputs": [
        {
          "internalType": "address",
          "name": "account",
          "type": "address"
        },
        {
          "internalType": "uint256",
          "name": "id",
          "type": "uint256"
        },
        {
          "internalType": "uint256",
          "name": "value",
          "type": "uint256"
        }
      ],
      "name": "burn",
      "outputs": [],
      "stateMutability": "nonpayable",
      "type": "function"
    },
    {
      "inputs": [
        {
          "internalType": "address",
          "name": "account",
          "type": "address"
        },
        {
          "internalType": "uint256[]",
          "name": "ids",
          "type": "uint256[]"
        },
        {
          "internalType": "uint256[]",
          "name": "values",
          "type": "uint256[]"
        }
      ],
      "name": "burnBatch",
      "outputs": [],
      "stateMutability": "nonpayable",
      "type": "function"
    },
    {
      "inputs": [],
      "name": "claimedAirdropWhitelist",
      "outputs": [],
      "stateMutability": "nonpayable",
      "type": "function"
    },
    {
      "inputs": [
        {
          "internalType": "uint256",
          "name": "id",
          "type": "uint256"
        }
      ],
      "name": "exists",
      "outputs": [
        {
          "internalType": "bool",
          "name": "",
          "type": "bool"
        }
      ],
      "stateMutability": "view",
      "type": "function"
    },
    {
      "inputs": [
        {
          "internalType": "address",
          "name": "_address",
          "type": "address"
        }
      ],
      "name": "getWhitelistByAccount",
      "outputs": [
        {
          "internalType": "bool",
          "name": "_isWhl",
          "type": "bool"
        },
        {
          "internalType": "bool",
          "name": "_isClm",
          "type": "bool"
        },
        {
          "internalType": "uint256",
          "name": "_boxType",
          "type": "uint256"
        },
        {
          "internalType": "uint256",
          "name": "_boxQuota",
          "type": "uint256"
        }
      ],
      "stateMutability": "view",
      "type": "function"
    },
    {
      "inputs": [],
      "name": "initialize",
      "outputs": [],
      "stateMutability": "nonpayable",
      "type": "function"
    },
    {
      "inputs": [
        {
          "internalType": "address",
          "name": "_chkAdmin",
          "type": "address"
        }
      ],
      "name": "isAdminAddress",
      "outputs": [
        {
          "internalType": "bool",
          "name": "",
          "type": "bool"
        }
      ],
      "stateMutability": "view",
      "type": "function"
    },
    {
      "inputs": [
        {
          "internalType": "address",
          "name": "account",
          "type": "address"
        },
        {
          "internalType": "address",
          "name": "operator",
          "type": "address"
        }
      ],
      "name": "isApprovedForAll",
      "outputs": [
        {
          "internalType": "bool",
          "name": "",
          "type": "bool"
        }
      ],
      "stateMutability": "view",
      "type": "function"
    },
    {
      "inputs": [
        {
          "internalType": "address",
          "name": "account",
          "type": "address"
        },
        {
          "internalType": "uint256",
          "name": "id",
          "type": "uint256"
        },
        {
          "internalType": "uint256",
          "name": "amount",
          "type": "uint256"
        },
        {
          "internalType": "bytes",
          "name": "data",
          "type": "bytes"
        }
      ],
      "name": "mint",
      "outputs": [],
      "stateMutability": "nonpayable",
      "type": "function"
    },
    {
      "inputs": [
        {
          "internalType": "address",
          "name": "to",
          "type": "address"
        },
        {
          "internalType": "uint256[]",
          "name": "ids",
          "type": "uint256[]"
        },
        {
          "internalType": "uint256[]",
          "name": "amounts",
          "type": "uint256[]"
        },
        {
          "internalType": "bytes",
          "name": "data",
          "type": "bytes"
        }
      ],
      "name": "mintBatch",
      "outputs": [],
      "stateMutability": "nonpayable",
      "type": "function"
    },
    {
      "inputs": [],
      "name": "owner",
      "outputs": [
        {
          "internalType": "address",
          "name": "",
          "type": "address"
        }
      ],
      "stateMutability": "view",
      "type": "function"
    },
    {
      "inputs": [],
      "name": "pause",
      "outputs": [],
      "stateMutability": "nonpayable",
      "type": "function"
    },
    {
      "inputs": [],
      "name": "paused",
      "outputs": [
        {
          "internalType": "bool",
          "name": "",
          "type": "bool"
        }
      ],
      "stateMutability": "view",
      "type": "function"
    },
    {
      "inputs": [
        {
          "internalType": "address[]",
          "name": "_whitelistList",
          "type": "address[]"
        },
        {
          "internalType": "uint256[]",
          "name": "_boxTypeIdList",
          "type": "uint256[]"
        }
      ],
      "name": "removeWhitelist",
      "outputs": [],
      "stateMutability": "nonpayable",
      "type": "function"
    },
    {
      "inputs": [],
      "name": "renounceOwnership",
      "outputs": [],
      "stateMutability": "nonpayable",
      "type": "function"
    },
    {
      "inputs": [
        {
          "internalType": "address",
          "name": "from",
          "type": "address"
        },
        {
          "internalType": "address",
          "name": "to",
          "type": "address"
        },
        {
          "internalType": "uint256[]",
          "name": "ids",
          "type": "uint256[]"
        },
        {
          "internalType": "uint256[]",
          "name": "amounts",
          "type": "uint256[]"
        },
        {
          "internalType": "bytes",
          "name": "data",
          "type": "bytes"
        }
      ],
      "name": "safeBatchTransferFrom",
      "outputs": [],
      "stateMutability": "nonpayable",
      "type": "function"
    },
    {
      "inputs": [
        {
          "internalType": "address",
          "name": "from",
          "type": "address"
        },
        {
          "internalType": "address",
          "name": "to",
          "type": "address"
        },
        {
          "internalType": "uint256",
          "name": "id",
          "type": "uint256"
        },
        {
          "internalType": "uint256",
          "name": "amount",
          "type": "uint256"
        },
        {
          "internalType": "bytes",
          "name": "data",
          "type": "bytes"
        }
      ],
      "name": "safeTransferFrom",
      "outputs": [],
      "stateMutability": "nonpayable",
      "type": "function"
    },
    {
      "inputs": [
        {
          "internalType": "address",
          "name": "_newAdmin",
          "type": "address"
        }
      ],
      "name": "setAdmin",
      "outputs": [],
      "stateMutability": "nonpayable",
      "type": "function"
    },
    {
      "inputs": [
        {
          "internalType": "address",
          "name": "operator",
          "type": "address"
        },
        {
          "internalType": "bool",
          "name": "approved",
          "type": "bool"
        }
      ],
      "name": "setApprovalForAll",
      "outputs": [],
      "stateMutability": "nonpayable",
      "type": "function"
    },
    {
      "inputs": [
        {
          "internalType": "string",
          "name": "newuri",
          "type": "string"
        }
      ],
      "name": "setURI",
      "outputs": [],
      "stateMutability": "nonpayable",
      "type": "function"
    },
    {
      "inputs": [
        {
          "internalType": "address[]",
          "name": "_whitelistList",
          "type": "address[]"
        },
        {
          "internalType": "uint256[]",
          "name": "_boxTypeIdList",
          "type": "uint256[]"
        },
        {
          "internalType": "uint256[]",
          "name": "_boxQuotaList",
          "type": "uint256[]"
        }
      ],
      "name": "setWhitelist",
      "outputs": [],
      "stateMutability": "nonpayable",
      "type": "function"
    },
    {
      "inputs": [
        {
          "internalType": "bytes4",
          "name": "interfaceId",
          "type": "bytes4"
        }
      ],
      "name": "supportsInterface",
      "outputs": [
        {
          "internalType": "bool",
          "name": "",
          "type": "bool"
        }
      ],
      "stateMutability": "view",
      "type": "function"
    },
    {
      "inputs": [
        {
          "internalType": "uint256",
          "name": "id",
          "type": "uint256"
        }
      ],
      "name": "totalSupply",
      "outputs": [
        {
          "internalType": "uint256",
          "name": "",
          "type": "uint256"
        }
      ],
      "stateMutability": "view",
      "type": "function"
    },
    {
      "inputs": [
        {
          "internalType": "address",
          "name": "newOwner",
          "type": "address"
        }
      ],
      "name": "transferOwnership",
      "outputs": [],
      "stateMutability": "nonpayable",
      "type": "function"
    },
    {
      "inputs": [],
      "name": "unpause",
      "outputs": [],
      "stateMutability": "nonpayable",
      "type": "function"
    },
    {
      "inputs": [
        {
          "internalType": "uint256",
          "name": "",
          "type": "uint256"
        }
      ],
      "name": "uri",
      "outputs": [
        {
          "internalType": "string",
          "name": "",
          "type": "string"
        }
      ],
      "stateMutability": "view",
      "type": "function"
    }
  ],
  "bytecode": "0x608060405234801561001057600080fd5b50612f0b806100206000396000f3fe608060405234801561001057600080fd5b50600436106101ce5760003560e01c80636b20c45411610104578063a12d0386116100a2578063e985e9c511610071578063e985e9c51461043f578063f242432a1461047b578063f2fde38b1461048e578063f5298aca146104a157600080fd5b8063a12d0386146103f0578063a22cb46514610403578063bd85b03914610416578063c75a69cf1461043757600080fd5b8063731133e9116100de578063731133e9146103b25780638129fc1c146103c55780638456cb59146103cd5780638da5cb5b146103d557600080fd5b80636b20c45414610384578063704b6c0214610397578063715018a6146103aa57600080fd5b80632eb2c2d6116101715780634f558e791161014b5780634f558e79146102d55780634f65bd88146102f85780635c975abb146103035780636b07b9571461030e57600080fd5b80632eb2c2d61461029a5780633f4ba83a146102ad5780634e1273f4146102b557600080fd5b806302fe5305116101ad57806302fe53051461023f57806306c84701146102545780630e89341c146102675780631f7fdffa1461028757600080fd5b8062fdd58e146101d357806301ffc9a7146101f95780630236bb5a1461021c575b600080fd5b6101e66101e13660046126d0565b6104b4565b6040519081526020015b60405180910390f35b61020c610207366004612832565b61054d565b60405190151581526020016101f0565b61020c61022a36600461242e565b610161546001600160a01b0390811691161490565b61025261024d36600461286c565b61059f565b005b6102526102623660046127e4565b6105d5565b61027a6102753660046128bc565b6108db565b6040516101f09190612a41565b6102526102953660046125fc565b61096f565b6102526102a836600461247c565b6109ab565b610252610a42565b6102c86102c3366004612781565b610a76565b6040516101f09190612a00565b61020c6102e33660046128bc565b600090815261012d6020526040902054151590565b61015f546101e69081565b60c95460ff1661020c565b61036261031c36600461242e565b6001600160a01b031660009081526101656020908152604080832054610166835281842054610163845282852054610164909452919093205460ff938416949390911692565b60408051941515855292151560208501529183015260608201526080016101f0565b610252610392366004612589565b610b9f565b6102526103a536600461242e565b610be7565b610252610c34565b6102526103c036600461272d565b610c68565b610252610c9e565b610252610db4565b6097546040516001600160a01b0390911681526020016101f0565b6102526103fe366004612781565b610de6565b610252610411366004612694565b610ff8565b6101e66104243660046128bc565b600090815261012d602052604090205490565b610252611007565b61020c61044d366004612449565b6001600160a01b03918216600090815260666020908152604080832093909416825291909152205460ff1690565b610252610489366004612525565b611161565b61025261049c36600461242e565b6111a6565b6102526104af3660046126fa565b61123e565b60006001600160a01b0383166105255760405162461bcd60e51b815260206004820152602b60248201527f455243313135353a2062616c616e636520717565727920666f7220746865207a60448201526a65726f206164647265737360a81b60648201526084015b60405180910390fd5b5060009081526065602090815260408083206001600160a01b03949094168352929052205490565b60006001600160e01b03198216636cdb3d1360e11b148061057e57506001600160e01b031982166303a24d0760e21b145b8061059957506301ffc9a760e01b6001600160e01b03198316145b92915050565b6097546001600160a01b031633146105c95760405162461bcd60e51b815260040161051c90612bfb565b6105d281611281565b50565b610161546001600160a01b0316331461061d5760405162461bcd60e51b815260206004820152600a60248201526937b7363c9020b236b4b760b11b604482015260640161051c565b82518061066c5760405162461bcd60e51b815260206004820152601a60248201527f57686974656c697374206164647265737320697320456d707479000000000000604482015260640161051c565b8251806106b25760405162461bcd60e51b8152602060048201526014602482015273426f78207479706520696420697320456d70747960601b604482015260640161051c565b8251806106f65760405162461bcd60e51b8152602060048201526012602482015271426f782051756f746120697320456d70747960701b604482015260640161051c565b818314801561070457508183145b801561070f57508083145b6107505760405162461bcd60e51b8152602060048201526012602482015271082d8d84098d2e6e840dad2e6e6dac2e8c6d60731b604482015260640161051c565b60005b86518110156108d25761016287828151811061077157610771612dee565b60209081029190910181015182546001808201855560009485529284200180546001600160a01b0319166001600160a01b0390921691909117905588519091610165918a90859081106107c6576107c6612dee565b60200260200101516001600160a01b03166001600160a01b0316815260200190815260200160002060006101000a81548160ff02191690831515021790555085818151811061081757610817612dee565b6020026020010151610163600089848151811061083657610836612dee565b60200260200101516001600160a01b03166001600160a01b031681526020019081526020016000208190555084818151811061087457610874612dee565b6020026020010151610164600089848151811061089357610893612dee565b60200260200101516001600160a01b03166001600160a01b031681526020019081526020016000208190555080806108ca90612dbd565b915050610753565b50505050505050565b6060606780546108ea90612d56565b80601f016020809104026020016040519081016040528092919081815260200182805461091690612d56565b80156109635780601f1061093857610100808354040283529160200191610963565b820191906000526020600020905b81548152906001019060200180831161094657829003601f168201915b50505050509050919050565b6097546001600160a01b031633146109995760405162461bcd60e51b815260040161051c90612bfb565b6109a584848484611294565b50505050565b6001600160a01b0385163314806109c757506109c7853361044d565b610a2e5760405162461bcd60e51b815260206004820152603260248201527f455243313135353a207472616e736665722063616c6c6572206973206e6f74206044820152711bdddb995c881b9bdc88185c1c1c9bdd995960721b606482015260840161051c565b610a3b85858585856113ef565b5050505050565b6097546001600160a01b03163314610a6c5760405162461bcd60e51b815260040161051c90612bfb565b610a7461159c565b565b60608151835114610adb5760405162461bcd60e51b815260206004820152602960248201527f455243313135353a206163636f756e747320616e6420696473206c656e677468604482015268040dad2e6dac2e8c6d60bb1b606482015260840161051c565b600083516001600160401b03811115610af657610af6612e04565b604051908082528060200260200182016040528015610b1f578160200160208202803683370190505b50905060005b8451811015610b9757610b6a858281518110610b4357610b43612dee565b6020026020010151858381518110610b5d57610b5d612dee565b60200260200101516104b4565b828281518110610b7c57610b7c612dee565b6020908102919091010152610b9081612dbd565b9050610b25565b509392505050565b6001600160a01b038316331480610bbb5750610bbb833361044d565b610bd75760405162461bcd60e51b815260040161051c90612ae0565b610be283838361162f565b505050565b6097546001600160a01b03163314610c115760405162461bcd60e51b815260040161051c90612bfb565b61016180546001600160a01b0319166001600160a01b0392909216919091179055565b6097546001600160a01b03163314610c5e5760405162461bcd60e51b815260040161051c90612bfb565b610a7460006117c0565b6097546001600160a01b03163314610c925760405162461bcd60e51b815260040161051c90612bfb565b6109a584848484611812565b600054610100900460ff16610cb95760005460ff1615610cbd565b303b155b610d205760405162461bcd60e51b815260206004820152602e60248201527f496e697469616c697a61626c653a20636f6e747261637420697320616c72656160448201526d191e481a5b9a5d1a585b1a5e995960921b606482015260840161051c565b600054610100900460ff16158015610d42576000805461ffff19166101011790555b610d806040518060400160405280601881526020017f68747470733a2f2f6e6674732e6f6374612e67616d65732f00000000000000008152506118ea565b610d8861192a565b610d90611961565b610d98611998565b610da0611998565b80156105d2576000805461ff001916905550565b6097546001600160a01b03163314610dde5760405162461bcd60e51b815260040161051c90612bfb565b610a746119d7565b610161546001600160a01b03163314610e2e5760405162461bcd60e51b815260206004820152600a60248201526937b7363c9020b236b4b760b11b604482015260640161051c565b815180610e7d5760405162461bcd60e51b815260206004820152601a60248201527f57686974656c697374206164647265737320697320456d707479000000000000604482015260640161051c565b815180610ec35760405162461bcd60e51b8152602060048201526014602482015273426f78207479706520696420697320456d70747960601b604482015260640161051c565b60005b8451811015610a3b576101656000868381518110610ee657610ee6612dee565b60200260200101516001600160a01b03166001600160a01b0316815260200190815260200160002060006101000a81549060ff02191690556101636000868381518110610f3557610f35612dee565b60200260200101516001600160a01b03166001600160a01b03168152602001908152602001600020600090556101646000868381518110610f7857610f78612dee565b60200260200101516001600160a01b03166001600160a01b03168152602001908152602001600020600090556101666000868381518110610fbb57610fbb612dee565b6020908102919091018101516001600160a01b03168252810191909152604001600020805460ff1916905580610ff081612dbd565b915050610ec6565b611003338383611a52565b5050565b336000908152610163602090815260408083205461016483528184205461016590935292205460ff1615156001146110785760405162461bcd60e51b8152602060048201526014602482015273111bdb89dd081a185d99481dda1a5d195b1a5cdd60621b604482015260640161051c565b336000908152610166602052604090205460ff16156110d95760405162461bcd60e51b815260206004820152601c60248201527f596f75206861766520636c61696d656420616c6c207269676874732e00000000604482015260640161051c565b6110ff6110ee6097546001600160a01b031690565b3384846110fa86611b33565b611b5d565b336000818152610166602052604090819020805460ff19166001179055517f22b7103b470384c963f38c45265b9b6f125c8a826999b281f9fe4ebad760b617906111559085908590918252602082015260400190565b60405180910390a25050565b6001600160a01b03851633148061117d575061117d853361044d565b6111995760405162461bcd60e51b815260040161051c90612ae0565b610a3b8585858585611b5d565b6097546001600160a01b031633146111d05760405162461bcd60e51b815260040161051c90612bfb565b6001600160a01b0381166112355760405162461bcd60e51b815260206004820152602660248201527f4f776e61626c653a206e6577206f776e657220697320746865207a65726f206160448201526564647265737360d01b606482015260840161051c565b6105d2816117c0565b6001600160a01b03831633148061125a575061125a833361044d565b6112765760405162461bcd60e51b815260040161051c90612ae0565b610be2838383611c75565b805161100390606790602084019061220d565b6001600160a01b0384166112ba5760405162461bcd60e51b815260040161051c90612cc3565b81518351146112db5760405162461bcd60e51b815260040161051c90612c7b565b336112eb81600087878787611d7a565b60005b84518110156113875783818151811061130957611309612dee565b60200260200101516065600087848151811061132757611327612dee565b602002602001015181526020019081526020016000206000886001600160a01b03166001600160a01b03168152602001908152602001600020600082825461136f9190612d27565b9091555081905061137f81612dbd565b9150506112ee565b50846001600160a01b031660006001600160a01b0316826001600160a01b03167f4a39dc06d4c0dbc64b70af90fd698a233a518aa5d07e595d983b8c0526c8f7fb87876040516113d8929190612a13565b60405180910390a4610a3b81600087878787611dce565b81518351146114105760405162461bcd60e51b815260040161051c90612c7b565b6001600160a01b0384166114365760405162461bcd60e51b815260040161051c90612b29565b33611445818787878787611d7a565b60005b845181101561152e57600085828151811061146557611465612dee565b60200260200101519050600085838151811061148357611483612dee565b60209081029190910181015160008481526065835260408082206001600160a01b038e1683529093529190912054909150818110156114d45760405162461bcd60e51b815260040161051c90612bb1565b60008381526065602090815260408083206001600160a01b038e8116855292528083208585039055908b16825281208054849290611513908490612d27565b925050819055505050508061152790612dbd565b9050611448565b50846001600160a01b0316866001600160a01b0316826001600160a01b03167f4a39dc06d4c0dbc64b70af90fd698a233a518aa5d07e595d983b8c0526c8f7fb878760405161157e929190612a13565b60405180910390a4611594818787878787611dce565b505050505050565b60c95460ff166115e55760405162461bcd60e51b815260206004820152601460248201527314185d5cd8589b194e881b9bdd081c185d5cd95960621b604482015260640161051c565b60c9805460ff191690557f5db9ee0a495bf2e6ff9c91a7834c1ba4fdd244a5e8aa4e537bd38aeae4b073aa335b6040516001600160a01b03909116815260200160405180910390a1565b6001600160a01b0383166116555760405162461bcd60e51b815260040161051c90612b6e565b80518251146116765760405162461bcd60e51b815260040161051c90612c7b565b600033905061169981856000868660405180602001604052806000815250611d7a565b60005b83518110156117615760008482815181106116b9576116b9612dee565b6020026020010151905060008483815181106116d7576116d7612dee565b60209081029190910181015160008481526065835260408082206001600160a01b038c1683529093529190912054909150818110156117285760405162461bcd60e51b815260040161051c90612a9c565b60009283526065602090815260408085206001600160a01b038b168652909152909220910390558061175981612dbd565b91505061169c565b5060006001600160a01b0316846001600160a01b0316826001600160a01b03167f4a39dc06d4c0dbc64b70af90fd698a233a518aa5d07e595d983b8c0526c8f7fb86866040516117b2929190612a13565b60405180910390a450505050565b609780546001600160a01b038381166001600160a01b0319831681179093556040519116919082907f8be0079c531659141344cd1fd0a4f28419497f9722a3daafe3b4186f6b6457e090600090a35050565b6001600160a01b0384166118385760405162461bcd60e51b815260040161051c90612cc3565b336118588160008761184988611f39565b61185288611f39565b87611d7a565b60008481526065602090815260408083206001600160a01b03891684529091528120805485929061188a908490612d27565b909155505060408051858152602081018590526001600160a01b0380881692600092918516917fc3d58168c5ae7397731d063d5bbf3d657854427343f4c083240f7aacaa2d0f62910160405180910390a4610a3b81600087878787611f84565b600054610100900460ff166119115760405162461bcd60e51b815260040161051c90612c30565b61191961204e565b61192161204e565b6105d281612075565b600054610100900460ff166119515760405162461bcd60e51b815260040161051c90612c30565b61195961204e565b610a7461209c565b600054610100900460ff166119885760405162461bcd60e51b815260040161051c90612c30565b61199061204e565b610a746120cc565b600054610100900460ff166119bf5760405162461bcd60e51b815260040161051c90612c30565b6119c761204e565b6119cf61204e565b610a7461204e565b60c95460ff1615611a1d5760405162461bcd60e51b815260206004820152601060248201526f14185d5cd8589b194e881c185d5cd95960821b604482015260640161051c565b60c9805460ff191660011790557f62e78cea01bee320cd4e420270b5ea74000d11b0c9f74754ebdbfc544b05a2586116123390565b816001600160a01b0316836001600160a01b03161415611ac65760405162461bcd60e51b815260206004820152602960248201527f455243313135353a2073657474696e6720617070726f76616c20737461747573604482015268103337b91039b2b63360b91b606482015260840161051c565b6001600160a01b03838116600081815260666020908152604080832094871680845294825291829020805460ff191686151590811790915591519182527f17307eab39ab6107e8899845ad3d59bd9653f200f220920489ca2b5937696c31910160405180910390a3505050565b60408051602080825281830190925260609160208201818036833750505060208101929092525090565b6001600160a01b038416611b835760405162461bcd60e51b815260040161051c90612b29565b33611b9381878761184988611f39565b60008481526065602090815260408083206001600160a01b038a16845290915290205483811015611bd65760405162461bcd60e51b815260040161051c90612bb1565b60008581526065602090815260408083206001600160a01b038b8116855292528083208785039055908816825281208054869290611c15908490612d27565b909155505060408051868152602081018690526001600160a01b03808916928a821692918616917fc3d58168c5ae7397731d063d5bbf3d657854427343f4c083240f7aacaa2d0f62910160405180910390a46108d2828888888888611f84565b6001600160a01b038316611c9b5760405162461bcd60e51b815260040161051c90612b6e565b33611cca81856000611cac87611f39565b611cb587611f39565b60405180602001604052806000815250611d7a565b60008381526065602090815260408083206001600160a01b038816845290915290205482811015611d0d5760405162461bcd60e51b815260040161051c90612a9c565b60008481526065602090815260408083206001600160a01b03898116808652918452828520888703905582518981529384018890529092908616917fc3d58168c5ae7397731d063d5bbf3d657854427343f4c083240f7aacaa2d0f62910160405180910390a45050505050565b60c95460ff1615611dc05760405162461bcd60e51b815260206004820152601060248201526f14185d5cd8589b194e881c185d5cd95960821b604482015260640161051c565b6115948686868686866120ff565b6001600160a01b0384163b156115945760405163bc197c8160e01b81526001600160a01b0385169063bc197c8190611e12908990899088908890889060040161295d565b602060405180830381600087803b158015611e2c57600080fd5b505af1925050508015611e5c575060408051601f3d908101601f19168201909252611e599181019061284f565b60015b611f0957611e68612e1a565b806308c379a01415611ea25750611e7d612e36565b80611e885750611ea4565b8060405162461bcd60e51b815260040161051c9190612a41565b505b60405162461bcd60e51b815260206004820152603460248201527f455243313135353a207472616e7366657220746f206e6f6e20455243313135356044820152732932b1b2b4bb32b91034b6b83632b6b2b73a32b960611b606482015260840161051c565b6001600160e01b0319811663bc197c8160e01b146108d25760405162461bcd60e51b815260040161051c90612a54565b60408051600180825281830190925260609160009190602080830190803683370190505090508281600081518110611f7357611f73612dee565b602090810291909101015292915050565b6001600160a01b0384163b156115945760405163f23a6e6160e01b81526001600160a01b0385169063f23a6e6190611fc890899089908890889088906004016129bb565b602060405180830381600087803b158015611fe257600080fd5b505af1925050508015612012575060408051601f3d908101601f1916820190925261200f9181019061284f565b60015b61201e57611e68612e1a565b6001600160e01b0319811663f23a6e6160e01b146108d25760405162461bcd60e51b815260040161051c90612a54565b600054610100900460ff16610a745760405162461bcd60e51b815260040161051c90612c30565b600054610100900460ff166105c95760405162461bcd60e51b815260040161051c90612c30565b600054610100900460ff166120c35760405162461bcd60e51b815260040161051c90612c30565b610a74336117c0565b600054610100900460ff166120f35760405162461bcd60e51b815260040161051c90612c30565b60c9805460ff19169055565b6001600160a01b0385166121875760005b83518110156121855782818151811061212b5761212b612dee565b602002602001015161012d600086848151811061214a5761214a612dee565b60200260200101518152602001908152602001600020600082825461216f9190612d27565b9091555061217e905081612dbd565b9050612110565b505b6001600160a01b0384166115945760005b83518110156108d2578281815181106121b3576121b3612dee565b602002602001015161012d60008684815181106121d2576121d2612dee565b6020026020010151815260200190815260200160002060008282546121f79190612d3f565b90915550612206905081612dbd565b9050612198565b82805461221990612d56565b90600052602060002090601f01602090048101928261223b5760008555612281565b82601f1061225457805160ff1916838001178555612281565b82800160010185558215612281579182015b82811115612281578251825591602001919060010190612266565b5061228d929150612291565b5090565b5b8082111561228d5760008155600101612292565b60006001600160401b038311156122bf576122bf612e04565b6040516122d6601f8501601f191660200182612d91565b8091508381528484840111156122eb57600080fd5b83836020830137600060208583010152509392505050565b80356001600160a01b038116811461231a57600080fd5b919050565b600082601f83011261233057600080fd5b8135602061233d82612d04565b60405161234a8282612d91565b8381528281019150858301600585901b8701840188101561236a57600080fd5b60005b858110156123905761237e82612303565b8452928401929084019060010161236d565b5090979650505050505050565b600082601f8301126123ae57600080fd5b813560206123bb82612d04565b6040516123c88282612d91565b8381528281019150858301600585901b870184018810156123e857600080fd5b60005b85811015612390578135845292840192908401906001016123eb565b600082601f83011261241857600080fd5b612427838335602085016122a6565b9392505050565b60006020828403121561244057600080fd5b61242782612303565b6000806040838503121561245c57600080fd5b61246583612303565b915061247360208401612303565b90509250929050565b600080600080600060a0868803121561249457600080fd5b61249d86612303565b94506124ab60208701612303565b935060408601356001600160401b03808211156124c757600080fd5b6124d389838a0161239d565b945060608801359150808211156124e957600080fd5b6124f589838a0161239d565b9350608088013591508082111561250b57600080fd5b5061251888828901612407565b9150509295509295909350565b600080600080600060a0868803121561253d57600080fd5b61254686612303565b945061255460208701612303565b9350604086013592506060860135915060808601356001600160401b0381111561257d57600080fd5b61251888828901612407565b60008060006060848603121561259e57600080fd5b6125a784612303565b925060208401356001600160401b03808211156125c357600080fd5b6125cf8783880161239d565b935060408601359150808211156125e557600080fd5b506125f28682870161239d565b9150509250925092565b6000806000806080858703121561261257600080fd5b61261b85612303565b935060208501356001600160401b038082111561263757600080fd5b6126438883890161239d565b9450604087013591508082111561265957600080fd5b6126658883890161239d565b9350606087013591508082111561267b57600080fd5b5061268887828801612407565b91505092959194509250565b600080604083850312156126a757600080fd5b6126b083612303565b9150602083013580151581146126c557600080fd5b809150509250929050565b600080604083850312156126e357600080fd5b6126ec83612303565b946020939093013593505050565b60008060006060848603121561270f57600080fd5b61271884612303565b95602085013595506040909401359392505050565b6000806000806080858703121561274357600080fd5b61274c85612303565b9350602085013592506040850135915060608501356001600160401b0381111561277557600080fd5b61268887828801612407565b6000806040838503121561279457600080fd5b82356001600160401b03808211156127ab57600080fd5b6127b78683870161231f565b935060208501359150808211156127cd57600080fd5b506127da8582860161239d565b9150509250929050565b6000806000606084860312156127f957600080fd5b83356001600160401b038082111561281057600080fd5b61281c8783880161231f565b945060208601359150808211156125c357600080fd5b60006020828403121561284457600080fd5b813561242781612ebf565b60006020828403121561286157600080fd5b815161242781612ebf565b60006020828403121561287e57600080fd5b81356001600160401b0381111561289457600080fd5b8201601f810184136128a557600080fd5b6128b4848235602084016122a6565b949350505050565b6000602082840312156128ce57600080fd5b5035919050565b600081518084526020808501945080840160005b83811015612905578151875295820195908201906001016128e9565b509495945050505050565b6000815180845260005b818110156129365760208185018101518683018201520161291a565b81811115612948576000602083870101525b50601f01601f19169290920160200192915050565b6001600160a01b0386811682528516602082015260a060408201819052600090612989908301866128d5565b828103606084015261299b81866128d5565b905082810360808401526129af8185612910565b98975050505050505050565b6001600160a01b03868116825285166020820152604081018490526060810183905260a0608082018190526000906129f590830184612910565b979650505050505050565b60208152600061242760208301846128d5565b604081526000612a2660408301856128d5565b8281036020840152612a3881856128d5565b95945050505050565b6020815260006124276020830184612910565b60208082526028908201527f455243313135353a204552433131353552656365697665722072656a656374656040820152676420746f6b656e7360c01b606082015260800190565b60208082526024908201527f455243313135353a206275726e20616d6f756e7420657863656564732062616c604082015263616e636560e01b606082015260800190565b60208082526029908201527f455243313135353a2063616c6c6572206973206e6f74206f776e6572206e6f7260408201526808185c1c1c9bdd995960ba1b606082015260800190565b60208082526025908201527f455243313135353a207472616e7366657220746f20746865207a65726f206164604082015264647265737360d81b606082015260800190565b60208082526023908201527f455243313135353a206275726e2066726f6d20746865207a65726f206164647260408201526265737360e81b606082015260800190565b6020808252602a908201527f455243313135353a20696e73756666696369656e742062616c616e636520666f60408201526939103a3930b739b332b960b11b606082015260800190565b6020808252818101527f4f776e61626c653a2063616c6c6572206973206e6f7420746865206f776e6572604082015260600190565b6020808252602b908201527f496e697469616c697a61626c653a20636f6e7472616374206973206e6f74206960408201526a6e697469616c697a696e6760a81b606082015260800190565b60208082526028908201527f455243313135353a2069647320616e6420616d6f756e7473206c656e677468206040820152670dad2e6dac2e8c6d60c31b606082015260800190565b60208082526021908201527f455243313135353a206d696e7420746f20746865207a65726f206164647265736040820152607360f81b606082015260800190565b60006001600160401b03821115612d1d57612d1d612e04565b5060051b60200190565b60008219821115612d3a57612d3a612dd8565b500190565b600082821015612d5157612d51612dd8565b500390565b600181811c90821680612d6a57607f821691505b60208210811415612d8b57634e487b7160e01b600052602260045260246000fd5b50919050565b601f8201601f191681016001600160401b0381118282101715612db657612db6612e04565b6040525050565b6000600019821415612dd157612dd1612dd8565b5060010190565b634e487b7160e01b600052601160045260246000fd5b634e487b7160e01b600052603260045260246000fd5b634e487b7160e01b600052604160045260246000fd5b600060033d1115612e335760046000803e5060005160e01c5b90565b600060443d1015612e445790565b6040516003193d81016004833e81513d6001600160401b038160248401118184111715612e7357505050505090565b8285019150815181811115612e8b5750505050505090565b843d8701016020828501011115612ea55750505050505090565b612eb460208286010187612d91565b509095945050505050565b6001600160e01b0319811681146105d257600080fdfea2646970667358221220d9d600611d9aa1b8306243424e96b11196e26b5f28580e882a6edc206c8f70ec64736f6c63430008070033",
  "linkReferences": {},
  "deployedLinkReferences": {}
}